:100000000C9462000C948A000C948A000C948A0070
:100010000C948A000C948A000C948A000C948A0038
:100020000C948A000C948A000C948A000C948A0028
:100030000C948A000C948A000C948A000C948A0018
:100040000C9400030C948A000C9470030C944A03E3
:100050000C948A000C948A000C948A000C948A00F8
:100060000C948A000C948A000000000024002700F1
:100070002A0000000000250028002B0000000000DE
:1000800023002600290004040404040404040202DA
:100090000202020203030303030301020408102007
:1000A0004080010204081020010204081020000012
:1000B0000008000201000003040700000000000027
:1000C0000000960511241FBECFEFD8E0DEBFCDBFE4
:1000D00011E0A0E0B1E0E0EAFBE002C005900D9283
:1000E000A431B107D9F721E0A4E1B1E001C01D922C
:1000F000A33CB207E1F710E0C2E6D0E004C02197CC
:10010000FE010E94C305C136D107C9F70E94A203B0
:100110000C94CE050C940000833081F028F48130DB
:1001200099F08230A1F008958730A9F08830B9F0B5
:100130008430D1F4809180008F7D03C08091800055
:100140008F7780938000089584B58F7702C084B53F
:100150008F7D84BD08958091B0008F7703C080911A
:10016000B0008F7D8093B0000895CF93DF93282F48
:1001700030E0F901E255FF4F8491F901E656FF4F57
:10018000D491F901EA57FF4FC491CC2391F081112A
:100190000E948C00EC2FF0E0EE0FFF1FE458FF4FA1
:1001A000A591B491EC91ED2381E090E021F480E001
:1001B00002C080E090E0DF91CF9108951F93CF932C
:1001C000DF93282F30E0F901E255FF4F8491F901C8
:1001D000E656FF4FD491F901EA57FF4FC491CC2363
:1001E000C1F0162F81110E948C00EC2FF0E0EE0F71
:1001F000FF1FEE58FF4FA591B4919FB7F8941111CE
:1002000004C08C91D095D82302C0EC91DE2BDC93F6
:100210009FBFDF91CF911F910895CF93DF9390E01F
:10022000FC01E656FF4F2491FC01EA57FF4F8491F1
:10023000882361F190E0880F991FFC01E859FF4F76
:10024000C591D491FC01EE58FF4FA591B491611175
:1002500009C09FB7F8948881209582238883EC9108
:100260002E230BC0623061F49FB7F8948881322F3F
:10027000309583238883EC912E2B2C939FBF06C04F
:100280008FB7F894E8812E2B28838FBFDF91CF9111
:1002900008953FB7F8948091BF019091C001A0915B
:1002A000C101B091C20126B5A89B05C02F3F19F02E
:1002B0000196A11DB11D3FBFBA2FA92F982F8827E6
:1002C000820F911DA11DB11DBC01CD0142E0660F41
:1002D000771F881F991F4A95D1F708958F929F9293
:1002E000AF92BF92CF92DF92EF92FF926B017C01AF
:1002F0000E9449014B015C01C114D104E104F104E5
:10030000F1F00E944901DC01CB0188199909AA0981
:10031000BB09883E9340A105B10570F321E0C21AE4
:10032000D108E108F10888EE880E83E0981EA11C30
:10033000B11CC114D104E104F10419F7DDCFFF9021
:10034000EF90DF90CF90BF90AF909F908F900895E7
:10035000CF92DF92EF92FF920F931F93CF93DF9391
:100360006C017A018B01C0E0D0E0CE15DF0581F091
:10037000D8016D918D01D601ED91FC910190F08134
:10038000E02DC6010995892B11F02196EECF7E0153
:10039000C701DF91CF911F910F91FF90EF90DF90F8
:1003A000CF900895089580E090E00895FC01538D6A
:1003B000448D252F30E0842F90E0821B930B54173F
:1003C00010F0CF96089501970895FC01918D828DCC
:1003D000981761F0828DDF01A80FB11D5D968C9199
:1003E000928D9F5F9F73928F90E008958FEF9FEFA4
:1003F0000895FC01918D828D981731F0828DE80F60
:10040000F11D858D90E008958FEF9FEF0895FC0119
:10041000918D228D892F90E0805C9F4F821B9109E6
:100420008F739927089584E191E00E94070221E0EB
:10043000892B09F420E0822F0895FC01848DDF01CF
:10044000A80FB11DA35ABF4F2C91848D90E0019647
:100450008F739927848FA689B7892C93A089B18936
:100460008C91837080648C93938D848D981306C0D7
:100470000288F389E02D80818F7D80830895EF923B
:10048000FF920F931F93CF93DF93EC0181E0888F4E
:100490009B8D8C8D981305C0E889F989808185FD35
:1004A00026C0F62E0B8D10E00F5F1F4F0F73112724
:1004B000E02E8C8DE8120CC00FB607FCFACFE8894D
:1004C000F989808185FFF5CFCE010E941D02F1CF11
:1004D0008B8DFE01E80FF11DE35AFF4FF0829FB7AD
:1004E000F8940B8FEA89FB89808180620AC09FB7EC
:1004F000F894EE89FF896083E889F98980818370A7
:10050000806480839FBF81E090E0DF91CF911F9155
:100510000F91FF90EF900895CF93DF93EC01888DBA
:100520008823C9F0EA89FB89808185FD05C0A889F7
:10053000B9898C9186FD0FC00FB607FCF5CF80817D
:1005400085FFF2CFA889B9898C9185FFEDCFCE01C7
:100550000E941D02E7CFDF91CF91089580E090E0E7
:10056000892B29F00E94130281110C940000089538
:10057000CF93DF931092B1011092B30148E050E0A5
:1005800061EB71E084E191E00E94A801C3E0D0E05A
:1005900061E08DE00E94DE0064E670E080E090E0C3
:1005A0000E946E0160E08DE00E94DE0064E670E073
:1005B00080E090E00E946E01219751F7DF91CF918A
:1005C0000895CF93C82F8091000190910101019768
:1005D00071F08C2F0E94B50090930101809300016F
:1005E00064E170E080E090E00E946E01ECCF8091C9
:1005F000B90181111092B901CF9108950E94C905E6
:100600001F920F920FB60F9211242F933F938F9347
:100610009F93AF93BF938091BB019091BC01A09138
:10062000BD01B091BE013091BA0123E0230F2D37F7
:1006300020F40196A11DB11D05C026E8230F0296E6
:10064000A11DB11D2093BA018093BB019093BC0101
:10065000A093BD01B093BE018091BF019091C001F4
:10066000A091C101B091C2010196A11DB11D80935D
:10067000BF019093C001A093C101B093C201BF918B
:10068000AF919F918F913F912F910F900FBE0F903F
:100690001F9018951F920F920FB60F9211242F934F
:1006A0003F934F935F936F937F938F939F93AF93FA
:1006B000BF93EF93FF9384E191E00E941D02FF91AD
:1006C000EF91BF91AF919F918F917F916F915F91CA
:1006D0004F913F912F910F900FBE0F901F90189543
:1006E0001F920F920FB60F9211242F938F939F9307
:1006F000EF93FF93E0912401F09125018081E09137
:100700002A01F0912B0182FD12C0908180912D0170
:100710008F5F8F7320912E01821751F0E0912D0190
:10072000F0E0EC5EFE4F958F80932D0101C080813B
:10073000FF91EF919F918F912F910F900FBE0F908E
:100740001F901895789484B5826084BD84B58160CB
:1007500084BD85B5826085BD85B5816085BD80918C
:100760006E00816080936E00109281008091810004
:1007700082608093810080918100816080938100FC
:10078000809180008160809380008091B1008460BE
:100790008093B1008091B00081608093B00080911F
:1007A0007A00846080937A0080917A0082608093DE
:1007B0007A0080917A00816080937A0080917A003B
:1007C000806880937A001092C100E0912401F0913A
:1007D000250182E08083E0912001F09121011082C7
:1007E000E0912201F09123018FEC808310922C0183
:1007F000E0912801F091290186E08083E0912601B3
:10080000F0912701808180618083E0912601F09141
:100810002701808188608083E0912601F091270183
:10082000808180688083E0912601F091270180819A
:100830008F7D808360E08CE00E940D0160E08BE0A2
:100840000E940D0160E08AE00E940D0160E089E0F5
:100850000E940D0160E081E00E940D0160E083E0F4
:100860000E940D0160E085E00E940D0160E087E0DC
:100870000E940D0160E088E00E940D0161E08DE0C2
:100880000E940D0161E08CE00E94DE0061E08BE0DF
:100890000E94DE0061E089E00E94DE0061E08AE003
:1008A0000E94DE0061E081E00E94DE0061E083E002
:1008B0000E94DE0061E085E00E94DE0061E087E0EA
:1008C0000E94DE0061E088E00E94DE0068EC70E0DB
:1008D00080E090E00E946E01C1E0D2E511E50FE4F6
:1008E00080E5F82E98E2E92E29E2D22E30EEC32ED2
:1008F0004CE2B42E5AE2A52E8CE00E94B5009093F3
:10090000010180930001019791F08091B90181115B
:100910000EC0C093B901D093B30148E050E061EB41
:1009200071E084E191E00E94A8010E94B8028CE08D
:1009300090E00E94E1028BE00E94B50090930101DB
:1009400080930001019791F08091B90181110EC04F
:10095000C093B9011093B30148E050E061EB71E03E
:1009600084E191E00E94A8010E94B8028BE090E02F
:100970000E94E10289E00E94B500909301018093FA
:100980000001019791F08091B90181110EC0C093CF
:10099000B9010093B30148E050E061EB71E084E1FC
:1009A00091E00E94A8010E94B80289E090E00E94B4
:1009B000E1028AE00E94B50090930101809300015A
:1009C000019791F08091B90181110EC0C093B901D6
:1009D000F092B30148E050E061EB71E084E191E016
:1009E0000E94A8010E94B8028AE090E00E94E10201
:1009F00081E00E94B500909301018093000101976E
:100A000091F08091B90181110EC0C093B901E092BB
:100A1000B30148E050E061EB71E084E191E00E94B5
:100A2000A8010E94B80281E090E00E94E10283E008
:100A30000E94B5009093010180930001019791F00D
:100A40008091B90181110EC0C093B901D092B30158
:100A500048E050E061EB71E084E191E00E94A80180
:100A60000E94B80283E090E00E94E10285E00E94CB
:100A7000B5009093010180930001019791F080915E
:100A8000B90181110EC0C093B901C092B30148E011
:100A900050E061EB71E084E191E00E94A8010E94C6
:100AA000B80285E090E00E94E10287E00E94B50074
:100AB0009093010180930001019791F08091B90119
:100AC00081110EC0C093B901B092B30148E050E06B
:100AD00061EB71E084E191E00E94A8010E94B802FC
:100AE00087E090E00E94E10288E00E94B5009093C8
:100AF000010180930001019791F08091B90181116A
:100B00000EC0C093B901A092B30148E050E061EB80
:100B100071E084E191E00E94A8010E94B80288E09F
:100B200090E00E94E1020E94AE02E6CEE4E1F1E034
:100B30001382128288EE93E0A0E0B0E08483958374
:100B4000A683B78386E091E09183808385EC90E073
:100B50009587848784EC90E09787868780EC90E087
:100B6000918B808B81EC90E0938B828B82EC90E078
:100B7000958B848B86EC90E0978B868B118E128EF2
:100B8000138E148E0895EE0FFF1F0590F491E02D43
:100B9000099481E090E0F8940C94CE05F894FFCF8E
:100BA0000100000000003F02A801D6018C020702EC
:040BB000E501F90161
:00000001FF
